:020000040000FA
:1000000001288601831603130F308600003081001B
:10001000831203134A280130A200FA30A100FA30FB
:10002000A0000000A00B1128A10B0F28A20B0D2887
:1000300008000B200B200B200B200B20080023189E
:100040002228242806182528282886120030A300F4
:100050000800241C2C282E2886182F283328061345
:1000600006160130A4000800861937283E2806121B
:10007000192086160130A3000030A40008000618DD
:100080004228442806194528492806170130A300AC
:0E0090000B2008003F201F20292034204A2882
:02009E0000342C
:0200A00000342A
:02400E00393F38
:00000001FF
