:020000040000FA
:1000000001288601880183160313FF3086008316BA
:100010000313003088008316031300308700831613
:10002000031300308100831203130030A200A300E9
:10003000003087007C28221C1F2000000800A21C22
:10004000232000000800221D272000000800A21D18
:100050002B20000008000130A30008002203A200AA
:1000600008002203A2002203A2002203A20022030E
:10007000A2002203A2002203A20008002208063EDA
:10008000A2000800A2183E2000000800A219422089
:1000900000000800A100FA30A0000000A00B4D28CD
:1000A000A10B4B2808002208880008002208013E06
:1000B000A20046204A204A2008001B202318312095
:1000C0002E204A204A2008002208A4000030A20066
:1000D0004A204A20080056205320240822020319EF
:1000E000722878280030A200203087004A204A2059
:1000F0000000003087000800061C56200000861C07
:100100005D200000061D64200000861D6B2000009D
:0401100053207C28D4
:04011400003400347F
:02400E00393F38
:00000001FF
