:020000040000FA
:1000000001288601880183160313FF3086008316BA
:10001000031300308800831603130030810083121D
:1000200003130030A200A300221C182000000800C7
:10003000A21C1C2000000800221D20200000080037
:10004000A21D2420000008000130A30008002203A4
:10005000A20008002203A2002203A2002203A200A1
:100060002203A2002203A2002203A2000800220809
:10007000063EA2000800A218372000000800A219BE
:100080003B2000000800A100FA30A0000000A00BF7
:100090004628A10B442808002208880008002208EE
:1000A000013EA2003F2043204320080014202318D3
:1000B0002A2027204320432008000800061C4F2048
:0C00C0000000861C562000004C205E282A
:0400CC0000340034C8
:02400E00393F38
:00000001FF
