:020000040000FA
:060000000A128A110C280F
:10000800FE00030EF3000A08F4000A128A115928A8
:100018000A128A110F28F701F801F901FA01830180
:100028000A128A11172807308316031386008312D1
:10003800031386018B170B17831603130C148312F3
:1000480003139010101690160B308F00DC308E00C2
:100058001014F501F601861C32283328512875083A
:100068007604031D3828392851280130F50000305E
:10007800F60006178618412842283E280613061659
:10008800061D472848284428061286150130F9001D
:100098000030FA00F701F8012F288618542855284F
:1000A8002F282D280A128A110C28831203130C1CDE
:1000B8005E285F288F2879087A0403196428652840
:1000C8008A28861586120130F7070318F80A0030C7
:1000D800F807143077067804031D732874288A28D3
:1000E8008611F701F801F901FA0186160B30F200C2
:1000F8002630F1005D30F000F00B8028F10B8028ED
:10010800F20B802887288312031386120C100B30F9
:100118008F00DC308E0074088A00730E8300FE0E98
:040128007E0E09003E
:00000001FF
