:020000040000FA
:060000000A128A110C280F
:10000800FE00030EF9000A08FA000A128A113229C2
:100018000A128A110F2883120313AF01B00183015A
:100028000A128A1117288316031301178B170B1648
:10003800FF308600831203138601F0308316031302
:10004800870083120313870183120313AD01AE01E6
:10005800871E2F283028A0282F083004031D352894
:100068003628A0280130AF000030B00041300A1215
:100078008A11AA200A128A1148282D082E04031969
:100088004628472848284E2883120313871F4D28DF
:100098004E2841282D082E04031953285428552882
:1000A800A7280A128A1159210A128A1183120313E6
:1000B800AB01AC01831203132D082E040319652824
:1000C800662867288628823083120313AA00DD3049
:1000D800A900A90B6D28AA0B6D2801308312031300
:1000E800AB070318AC0A0030AC072C08803AFF00B5
:1000F80080307F02031D822814302B02031C8528C0
:1001080086285E2846300A128A11AA200A128A1105
:1001180094282D082E0403199228932894289A28A5
:1001280083120313071F99289A288D280A128A1107
:1001380059210A128A112828871AA328A4282828AE
:10014800AF01B00128280A128A110C288312031360
:10015800A800A201A20A413028060319B428B5282C
:10016800BC28613028060319BA28BB28BC28A2017C
:100178002208A000A1012008A4002108A500A301CD
:10018800A30A463028060319CA28CB28D228663085
:1001980028060319D028D128D228A3012308A000B3
:1001A800A1012008A6002108A700240C031C871021
:1001B80003188714240C031C871103188715260CB1
:1001C800031C071003180714260C031C0711031837
:1001D80007150800F800F201F20A41307806031901
:1001E800F628F728FE28613078060319FC28FD2830
:1001F800FE28F2017208F000F1017008F40071089D
:10020800F500F301F30A4630780603190C290D2985
:100218001429663078060319122913291429F301C1
:100228007308F000F1017008F6007108F700740C0B
:1002380083120313031C871003188714740C031C00
:10024800871103188715760C031C07100318071469
:10025800760C031C07110318071508008B1C352999
:1002680036295229013083120313AD000030AE0045
:1002780046300A128A11EE200A128A1183120313D9
:10028800071F4729482942290A128A1160210A12A0
:100298008A1183120313AF01B0018B107A088A0008
:1002A800790E8300FE0E7E0E090083120313871059
:1002B800071087110711080083120313871007100E
:0602C80087110711080078
:00000001FF
